:040000006F0010433A
:100004000000000000000000560300006003000030
:10001400000000002E0C00000000000000000000A2
:100024002E0C00002E0C0000000000000000000058
:100034007438000000000000443700000000000095
:100044002E0C00002E0C00002E0C00002E0C0000C4
:100054002E0C00002E0C00002E0C00002E0C0000B4
:100064002E0C00002E0C00002E0C00002E0C0000A4
:100074002E0C00002E0C00002E0C00002E0C000094
:100084002E0C00002E0C00002E0C00002E0C000084
:100094002E0C00002E0C00002E0C00002E0C000074
:1000A4002E0C00002E0C00002E0C00002E0C000064
:1000B4002E0C00002E0C00002E0C00002E0C000054
:1000C4002E0C00002E0C00002E0C00002E0C000044
:1000D4002E0C00002E0C00002E0C00002E0C000034
:1000E4002E0C00002E0C00002E0C00002E0C000024
:1000F4002E0C00002E0C00002E0C00002E0C000014
:10010400000000002E0C00002E0C00002E0C00003D
:100114002E0C00002E0C00002E0C00002E0C0000F3
:100124002E0C00002E0C00002E0C00002E0C0000E3
:100134002E0C00002E0C00002E0C00002E0C0000D3
:100144002E0C00002E0C00002E0C00002E0C0000C3
:100154002E0C00002E0C00002E0C00007005000078
:100164002E0C00002E0C00002E0C00002E0C0000A3
:100174002E0C00002E0C00002E0C00002E0C000093
:100184002E0C00002E0C00002E0C00002E0C000083
:100194002E0C00002E0C00002E0C00002E0C000073
:1001A400000000000000000000000000000000004B
:0C01B4000000000000000000000000003F
:1001C000732500309302800873B00230828073255B
:1001D00000309302800873A00230828073100530D3
:1001E00082800100970201209382C2E1938202E0A3
:1001F000739002349382C18A03A302000321030097
:10020000824273901234D652739002309240A242CE
:100210003243C2435244E244724582551256A256BA
:100220003257C2575258E25872598649164AA64A5E
:10023000364BC64B564CE64C764D865D165EA65E3A
:10024000365FC65F130181077300203000003971EB
:1002500001436EC619A0397141536AC866CA62CC9F
:100260005ECE19A0397101535AD056D252D44ED60F
:100270004AD826DA22DC06DE33016140828241114F
:100280004AC026C222C406C68282B24D4101024D36
:10029000924C224CB24B4101024B924A224AB24943
:1002A0004101024992442244B240410182803D43CF
:1002B0002A876373C3029377F700BDEFADE59376AA
:1002C00006FF3D8ABA960CC34CC30CC74CC7410706
:1002D000E36BD7FE11E28280B306C3408A06970221
:1002E000000096966780A6002307B700A306B70014
:1002F0002306B700A305B7002305B700A304B70082
:100300002304B700A303B7002303B700A302B70079
:100310002302B700A301B7002301B700A300B70071
:100320002300B700828093F5F50F93968500D58D55
:1003300093960501D58D61B793962700970200002B
:1003400096968682E78086FA9680C1171D8F3E9624
:10035000E374C3F8A5B773110134EF30604A01A00C
:1003600073110134EF30C049EF40D00FAA853775C3
:100370000000130585B9EF508063EF40100FAA8588
:1003800037750000130585BAEF506062EF40300DFD
:10039000AA8537750000130585BBEF50406101A0A9
:1003A000C16769768146FD170506139706014183EB
:1003B0006364B7003E8582803307D5001823B98F68
:1003C000214713F81700858363050800B18FC20722
:1003D000C1837D17420741836DF78506F9B7EFF2B8
:1003E0001FEA938441828C40A147130101BE63E65A
:1003F000B7169D67938747B78A05BE959C411384BE
:10040000418282879307500A6315F50085471CC017
:1004100001A8AA8537750000130545BCEF50205987
:1004200013010142BDBD9307A0056314F500894780
:10043000F9BFAA8537750000130585BFEF50205717
:1004400023200400F1BF2380A1988D47C9B7A38062
:10045000A19891476DBF22052391A198954745BF6B
:1004600093870198AE231307F03FC98DAEA39387FE
:10047000F5FFC207C1836366F700239101829947A4
:1004800079B737750000130600401305C5C2EF5059
:1004900000527DB79387019893862182AE239222E2
:1004A000E370B6F8130716004207B2974183C8A35A
:1004B0009AA29D47E37DB7F4A5B722052393A1D85F
:1004C000A147B1B79387019803D76740B623842328
:1004D0009033498F2393E74093D586009397860006
:1004E000CD8FFC85230C9100A30CC100914713888C
:1004F00001989385C7FFC205C18163EFD50293853B
:100500004600C205C181280832C63AC436C2493DF8
:100510002247924632466319A70237750000A68526
:10052000130585C5EF50A0488545138581D8EF1088
:1005300080662391018229B73305F80008212C0831
:10054000BE9588A1850775B72A8637750000BA85DC
:100550001305C5C9EF50A045E9BF37750000130565
:1005600085CDEF50C0442391018223A004004DBDEE
:10057000411122C6372400409305505213050480D0
:10058000EF00B0321DC913050480EF00F03083C7BF
:10059000018F1375F50F89CB0547138401826382A0
:1005A000E7022310040011A01D3D372500409305EC
:1005B000505213050580EF0010333244410173009F
:1005C00020301A209306E0079387019063E2E60249
:1005D00093061700C2063E97C18208A316A02947BA
:1005E000E315E5FCB69723800700EF30706655BF32
:1005F000A38F07060947231004002387E18E75B7F0
:10060000EFF2FFC70111814549461305E10045316D
:10061000B7170000938767A63EC485679387078056
:100620003ECAB7770000938747D1377500003ECCAC
:10063000130505D299477C86EF5000492C000A85A6
:10064000EF20305D19C5377500001305C5D3EF5095
:10065000A047B71700009387C7B73EC4B77700001D
:10066000938787D5377500003ECC130545D695474F
:100670007C86EF5060452C004800EF20905919C54A
:1006800037750000130505D8EF500044056111B916
:10069000EFF2FFBE0945EF008070A122EF40604DF0
:1006A000716513050520EF40604FB707002083A553
:1006B000070B37750000130545CFEF50402F11256C
:1006C000AA8537750000130545D0EF50402E1385DD
:1006D00081D8EF106035EF10A05A2A84153719E041
:1006E000EF10C0580100FDBFB71702409843B7068E
:1006F000FFF041111367170098C3D8433706020073
:10070000758FD8C39843B706F7FEFD16758F98C34B
:100710009843B706FCFFFD16758F98C3D843B706FC
:1007200001FFFD16758FD8C39843B70600ECFD1680
:10073000758F98C33707FF0098C723A6070202C426
:1007400002C69843C166558F98C3B7160240056725
:100750009C42F18F3EC6A24785073EC4B24781E75F
:10076000A247E397E7FEB71702409C431397E700C1
:100770006357070685473EC632478547631FF70420
:10078000B7170240D843B706C1FFFD16D8C3D843F8
:10079000D8C3D84313670740D8C3D843758FD8C38D
:1007A000D843B7062900558FD8C39843B706000130
:1007B000558F98C3984393166700E3DD06FED84330
:1007C000B7160240719BD8C3D84313672700D8C31C
:1007D0002147DC42B18BE39EE7FE4101828002C6E5
:1007E00061BFB7160240D842B70700201146318BCF
:1007F0009387070B6305C70021466308C7023717B5
:100800007A001307072098C3371702405843118313
:100810009376F70037070020130707003697142355
:1008200098433357D70098C38280D842D442416658
:1008300049833D8BF18E1306270015CF3D47630F8B
:10084000E6024147630FE602454781456313E60030
:100850004146A1E23747024003270780418B0DC77D
:1008600037177A00130707203306C70290C3C9DD84
:100870009843058349BF81454946E1BF85453546D3
:10088000C9BF81453D46F1B737173D0013070790B3
:10089000E1BF3715024058559316F700585563DFEE
:1008A000060411833D8B9306170037177A00130750
:1008B00007203357D70298C35455A182BD8A8DE2D1
:1008C00095463307D702058398C337170240585718
:1008D00094433D8B050733D7E60298C3984369B725
:1008E00005456394A600E546E9BF3D456396A6002D
:1008F000D1463387E602C9BF8906E5BF3D8B930623
:10090000170037177A00130707203357D702F1B7BC
:10091000EFF2FF962A844E2108418D29184485471D
:10092000630DF70011C78946630AD702014529A064
:1009300075FD230604001CC4ADB211ED5C248507CF
:1009400093F7F70F5CA4E373F7FE89471CC42306F3
:1009500004000545D5B723240400C9BF631BF50077
:100960005C24850793F7F70F5CA4E371F5FC23245F
:100970000400230604005DBFEFF27F90411185451E
:1009800013050004DD2B93070003372501407C820B
:100990004C0093078004130505803EC6052E4101D7
:1009A0006FF03F90EFF2BF8D05479306E0101306FE
:1009B000A00F930500082A84EF30302E1145EF3048
:1009C00050332285EF3050320545EF30F04F01486B
:1009D00089470147930680071306800F894509451B
:1009E000EF30F07801488547094793065007130612
:1009F000500F95451545EF309077054885470D47D1
:100A00009306200713063002A1452145EF303076CA
:100A1000B706002037760000854701479386060415
:100A20001306C6D9BD451305D002EF30507D0148ED
:100A3000854701479306A0031306000F9305A00303
:100A40001305D002EF30D064014889470947930667
:100A500090061306000F930590061305D002EF30A1
:100A600030636FF01F84EFF29F813775000013052C
:100A700005DBEF506005EF30E042EF300032ED3D36
:100A800037750000130585DCEF5000040965130578
:100A900005F4EF40F0472A8431373775000013051D
:100AA000C5DDEF50600237750000130545DFEF50DC
:100AB000A001EF30A0362285EF40304637040020F9
:100AC000B704002013050401A135138504028935FC
:100AD00019C5EF30A030EF302036EF3020342945F3
:100AE000EF20702EC5B7EFF2EFF7AA8432892A867D
:100AF00037750000130585E22E84B689EF40306B10
:100B00008547631AF40037750000130505E5EF40CB
:100B1000B07BEF30A02C2286CE854A85EF30E032C4
:100B2000631C940037750000130505E7EF40D0798A
:100B3000EF308030EF30802E6FF00FF6EFF22FF4B1
:100B40000C219307100D6394F50218318547631E3D
:100B5000F7003621894763FAD700F91613066500B6
:100B60004C314821C206C182BD3F6FF08FF337750B
:100B700000001305C5E0EF409063C5BFEFF22FF012
:100B800037750000130545E9EF4010741305007D2B
:100B9000EF2070230545EF308056377500001305B0
:100BA000C5EAEF407072B775000037750000938595
:100BB00005EC130505EDEF30407221E537750000B7
:100BC000130585EDEF405070B775000037750000D4
:100BD000938545F11305C5F1EF30F0000545EF3081
:100BE000C06937040020FD5615468545138581D818
:100BF000EF00B06A8547E318F5FE130504233D3F77
:100C0000DDB737750000130585EF6DBFEFF22FE7F5
:100C1000AA842E840C2099E16FF0AFE826850504A4
:100C20008529930500082685A52965DDE5B701A07E
:100C300073901234970100209381C1C717F10020EF
:100C40001301413C177500001305052397F5FF1F9D
:100C50009385453B1386018263FAC5008322050014
:100C600023A0550011059105E3EAC5FE1385018215
:100C700097850020938545B36377B5002320050051
:100C80001105E36DB5FEFD42739002BCFD42739009
:100C90004280B7820000938202807390023097F204
:100CA000FFFF9382623693E2320073905230EFF08E
:100CB000BFA3970200009382E29D739012347300E9
:100CC0002030B7F7FF1F03A5477082809C4513F7BC
:100CD000070113F8F70001C7D8413368E8008E21F7
:100CE00013F7F50F39C318418146854E3D4F930FD9
:100CF000800293028004214E3396DE00B3F8C500D3
:100D0000631116039398260033131F011343F3FF57
:100D10003377E300B318180133E7E800639FF70562
:100D200050C98506E39AC6FD18C11307F00F637515
:100D3000B70454412146854E3D4F930F80029302E4
:100D40008004414EB398CE0033F715016392E80258
:100D50001317260001173313EF001343F3FFB37685
:100D6000D3003317E800D98E639DF701232A1501BC
:100D70000506E319C6FD54C18280E39457FA10C9F1
:100D80004DB7E39757FE23281501DDB708456D8D54
:100D90003335A00082800CC982804CC9828023A494
:100DA000A182828003A78182894710216311F70203
:100DB00014318D4763EDD7003C219A0637E700E0F8
:100DC0009607D58F93F7F70F32972300F7405441DA
:100DD0000547935756003317C70089CA93870704FE
:100DE0008A07B7E600E0B69798C382809387070624
:100DF000B7E600E08A07B69798C30F10000082801C
:100E0000371702405C439146B18B6385D700A146FA
:100E10006384D706B7177A00938707201CC137165B
:100E200002405C4237070020130707039183BD8B04
:100E3000BA9794231C41B3D7D7005CC15442A18216
:100E40009D8ABA969422B3D6D70014C55442AD8277
:100E50009D8A36971823B3D7E7005CC5584239837B
:100E600093763700370700201307470B3697182370
:100E7000B3D7E7021CC982805C435843C166C9836B
:100E8000758FB7F6FF1F83A6C670BD8B89071396B3
:100E9000160163480600C54601466392D702C9475A
:100EA00039A88946638FD702BD46638ED702C146F3
:100EB000638ED702C54601466393D700C1471DEF35
:100EC0003747024003270780418B05C737177A0051
:100ED00013070720B307F7021CC131D21C418583D9
:100EE00035BF01466DBF0546B547D1BF0146BD4779
:100EF000F9B737173D0013070790E9BFB715024050
:100F0000D8559316F700D85563DF060411833D8B3F
:100F10009306170037177A00130707203357D702B5
:100F200018C1D455A182BD8A8DE295463307D702F8
:100F3000058318C137170240585714413D8B0507E8
:100F400033D7E60218C1184171B785456394B600DE
:100F5000E546E9BFBD456396B600D1463387E60254
:100F6000C9BF8906E5BF3D8B9306170037177A0086
:100F7000130707203357D702F1B799C53717024037
:100F80001C4F5D8D08CF8280B7170240984F1345E4
:100F9000F5FF798D88CF828099C5371702405C4F65
:100FA0005D8D48CF8280B7170240D84F1345F5FFBB
:100FB000798DC8CF8280EFF28FAC1629F577FD17B7
:100FC000F58FF621DA257971D58F1EA95625FD7783
:100FD0009387379FF58FD6212A842EC6D58F9625E5
:100FE000D58FB625D58F5EA55E29C207C18393F73D
:100FF000F7CFD98F5EA968082135B747014093879D
:101000000780B245631EF402A2576547B387E70223
:101010009841930640060A07B3D7E70233D7D702B1
:10102000B3F7D7021207920793872703B3D7D702E4
:10103000BD8BD98FC207C1831EA445616FF06FA617
:101040009257E1B791C55E250967D98F5EA5828069
:101050005A25F977FD17F98FD5BF13F7F50F854797
:101060001583B395B7006319F7009307C50098433C
:1010700001CED98D8CC38280894693074501E31840
:10108000D7FE93070501E5B793C5F5FFF98DDDB7E9
:1010900093F5F51F4EA182804A211375F51F8280BA
:1010A0000A216D8D3335A000828013F7F50F854638
:1010B0001583B397B6006311D7025A25F98F1A2109
:1010C00001454207418381CB0545A181B315B50098
:1010D0006D8F3335E000828089466314D7001A296A
:1010E000F1BF5A29E1BFA1818547B397B70093C7E4
:1010F000F7FFC207C1831EA18280EFF24F98AA8436
:10110000EFF00F8C83A7C1822A8499C3268582972A
:101110002285EFF0AF8C6FF0CF98EFF24F968947B2
:10112000054463C7A70079158D4763F6A7000144FE
:1011300022856FF00F970545CD372A846DF9B77575
:101140000000377500009385C5F2130505F3EF40E5
:101150001006F9BF635DB004AA87594839C9EFF298
:101160000F9232872E8609EB8145EFF04F941308DA
:10117000600942856FF0EF9263F8D5008145EFF08A
:101180000F931308200AF5B76376A700B305D700BD
:101190006368B5000148E3FEE7FCBE96E37BD7FC3D
:1011A00081453E85EFF0AF901308600BD9B7130867
:1011B000200242858280EFF28F8CB28763EAD502EB
:1011C00005C91DC663C6050285C66376A60033073A
:1011D000D6006378E500637DF5003307D50063E949
:1011E000E7003686BE85EF40605501456FF06F8B96
:1011F0003E868D37E5BFAE8763CC050205C5EFF2AD
:101200000F88B2854111368663E7D702B707000021
:101210009387E72A3EC6B247829701473A85410144
:101220006FF02F881307200291C159473A858280B9
:1012300013072002E5BF13072002EDD33E86EFF02F
:101240000F871307200AD9BF1C415441D843369752
:10125000D8C358413A951CC182801307C53A5C41F6
:1012600063E6E5003E9533B5A500828001458280A6
:1012700083A6C5FF9397160063D00706EFF22F8071
:10128000411163D80602094536C6413DB24611C533
:1012900081452E8541016FF0CF801306E04E9D659C
:1012A000377500009385C52A130505FEEF402070B1
:1012B000C5B7370400C07D14758C8D8A99E63385D7
:1012C000A5406115818DE37685FC0945B93569F145
:1012D000A2861306604FE1B72E8582801397250002
:1012E0002A97145B5C466394C6021CDB91EF93D78C
:1012F00055008A073E958547B397B7004C4993C779
:10130000F7FFED8F5CC9828023A407008280184616
:101310005CC791C398C782806363B502AA87014501
:101320006361F602D8430545634D0700EFE23FF5E0
:101330008C4336851D373335A0006FE09FF601459D
:1013400082808280EFE21FF24041AE89130BC53AE2
:1013500061142A94AA862A892286DA854E856D3FF1
:10136000054A21C983A44900054A63D40404B70A85
:101370000040FD1AB3F45401CE94CA862286DA8561
:101380002685593F1DC584406395340363069B023F
:1013900083A90400CA862286DA854E85B53F11C925
:1013A00083A74900B3FA5701D699B3843441333A3D
:1013B000900052856FE05FEE014AE5BFEFE23FEC3F
:1013C000F947411163F6B7009307F00763E4A702FA
:1013D0002AC409452EC6913301442246B24519E577
:1013E0003775000013054524EF40605C22854101FC
:1013F0006FE03FEB0E05A1153355B500130485FFD3
:10140000F5B7EFE2DFE79307F007AA8463E1A702ED
:1014100009817D15F94763FAA7007D54A2852685C9
:10142000713F05140E047D0522956FE09FE7EF30B4
:1014300030047D44098C420441806104C5B7EFE269
:101440001FE42A84C84141112EC6653F9307E00D71
:10145000B24563F9A700AA85377500001305452139
:10146000EF00E07D93172500A297985B11C30CC78E
:1014700023A40500D8C58CDB935755008A073E94FA
:101480008547B397A70048485D8D48C841016FE084
:101490005FE1EFE2DFDE2A84C84141112EC69537B5
:1014A0003246AA8522851D3D41016FE09FDFEFE2B4
:1014B0001FDDDC41B384C5008CC0918FDCC0D0C17E
:1014C000C0402A890A04098026945C4004C063C68F
:1014D0000700A2857D3F2285853BA6854A85853705
:1014E0006FE03FDCEFE21FD82A89AE84A13DAA89D4
:1014F00009CD09451D3119E5377500001305C51FD4
:10150000EF40805C4E856FE03FD9DC400327090146
:1015100080408A0789831D8F2328E900DCC011C819
:101520005C4063C80700A2854A85A5372685293B0C
:10153000A284C0400A040980269409C85C4063C79D
:1015400007004A85A285B1372285FD39A6854A85DF
:10155000FD354DBF19E17D558280EFE2BFD0130903
:10156000403B6374B902B367B5008D8B2A84AE84A7
:1015700085C309455D3611E9377500009146268619
:10158000A285130505F8EF4080427D556FE0DFD05E
:101590009306C03A01469305C03AB1391C4444C091
:1015A0009309C43AF19B1CC49387C4C4E114A29468
:1015B0002328F43A228500C02326943ACE8541356B
:1015C000B707008023A03401DCC023282401232690
:1015D0002401014565BFEFE29FCA4111854415CD45
:1015E0008DCDB367B5008D8B8DEB1C452A84898B1F
:1015F00091E72EC6EFE0DFBCB2452A8922858D39FE
:10160000854411C5930585FF2285E93DAA841C44C4
:10161000898B81E74A85EFE07FBC268541016FE039
:101620005FC8EFE2DFC585E10945EFF01FAF09C5EF
:10163000054422856FE0FFC637750000130585F36A
:10164000EF408048F5B7AA8401C51C416380A7021A
:101650000945EFF09FAC69FD377500001306F07582
:10166000A6851305C5F5EF408034D9B72E84E14631
:101670000146E1452285EFF01FB89C44898B81E744
:10168000EFE01FB42A89DC40370600401387C43AD4
:10169000E117A6977D16636BF700DC445CC88044B5
:1016A000098821EC4A85EFE07FB361B75443B3F575
:1016B000C60063CF0602AE86854801430145032874
:1016C00004002A982320040103284400369823228A
:1016D0000401032884006373D80036884844144802
:1016E000232404011A95C69648C414C82E9765B7DA
:1016F0002E85814805438146D9B701441DBFEFE2DD
:101700007FB6AD0513F9C5FF9307F0077971AA8479
:10171000B28963E92711135429007D14F947130A8C
:10172000F00D63FD87007D54A2854A85051479314B
:101730000E042A94130AF40113040402935754006C
:1017400091078A07A697C8438547B3978700B307D1
:10175000F040E98F8DC33305F0407D8DEF3040516F
:10176000FD45898DC205C181137504FEAA959307B5
:10177000F00D6394F50E93051400130404028147E1
:1017800063F38500FD47BE9513F405FE1307E00DD6
:101790006373870A9307F00D6309FA009307CA0081
:1017A0008A07A6978043631004100945EFF0FF965F
:1017B00019E5377500001305C5FFEF40E0309C4484
:1017C000898B81E74E85EFE07FA16146814528083E
:1017D000EFE0FFAD2C082685A9358547631CF50C85
:1017E0009C44898B99E3EFE0BF9D0945EFF0FF92A0
:1017F00019E99D65377500004A869385052A13050A
:10180000051CEF40C01A0945EFF03F91014419E56E
:10181000377500001305C5FFEF40002B2285456199
:101820006FE09FA74A85EF30A0447D44098C4204B5
:1018300041806104D5BD9357540091078A07A6974C
:10184000DC43B9CF3305F0407D8DEF306042FD477A
:10185000B385A740C205C181A2959387C5008A07B9
:10186000A697804339D022862685EFF03FA75840BF
:10187000930709016366F7004A86A2852685053924
:101880005C40370700805D8F58C098488A0789837D
:10189000BA97D8449CC86373F700DCC42104BDBF69
:1018A00013040402F5B55C4063F427014044E5BD30
:1018B000D28555BF0545EFF05F8619E53775000005
:1018C00013058506EF4040200545EFF01F8519E51B
:1018D000377500001305C50EEF40001F0545EFF0FA
:1018E000DF83E31F05EEB257A25812583EC072477D
:1018F0008257E246D0408C4037750000130505172B
:10190000EF40E00AF1BDEFE29F974111814429C108
:10191000A1C1A14763F3F500A1451C452A840149F3
:10192000898B91E72EC6EFE0BF89B2452A898144B1
:1019300063CA05009397150063C607004A8622858F
:101940007D3BAA841C44898B81E74A85EFE01F898F
:10195000268541016FE0FF94EFE2DF9041110144E1
:1019600051C1C9C141C29309F6FF93E73900F18F14
:10197000B5EBA14763F3F500A1459307C6FF13C775
:10198000F5FF01446360F706BE9563CD0504B70417
:101990000040ED8CA1E81C4532842A89898B91E7AF
:1019A0002EC6EFE0FF81B245AA8426864A85813B98
:1019B000AA993304804033F48900630E850003271D
:1019C000C5FFB7060040B307A440558F232EE5FEA0
:1019D000D58F232EF4FE83278900898B81E7268506
:1019E000EFE0CFFF228541016FE01F8BEFE23F89DF
:1019F000370500209307456413840183A16513050F
:101A000045641CC0EFF01FB5AA841145EFF0EFF05C
:101A100009E90C4037750000216613054527EF30B2
:101A2000107926856FE0FF8709C9930745002320B9
:101A300005001CC55CC101458280372500021305E5
:101A400065C08280EFE21F8221C5328913742900AC
:101A5000AE89AA84EFE0CFF611C8804033F4890044
:101A600011ECEFE0AFF722856FE01F83E38B09FEF7
:101A70009C40B3F7F900E39637FF3E8413791900D1
:101A8000E30109FE98409347F4FFF98F9CC0D1BF52
:101A900037240002130464C0F9B7EFE2AFFC55CD60
:101AA0001C45E9C35C41DDCF6383050C939765005A
:101AB00063C4070C9377660019476384E70C1377B8
:101AC00086FF61E3DDCFB68A328A2E89AA84EF10C1
:101AD000F0534DEDEFE0CFEEAA895286CA852685F8
:101AE00095372A8419E163960A004E85EFE00FEFDF
:101AF00019A883D7418B99CB4E8537240002EFE09C
:101B0000EFED130454C022856FE00FF903A4C18ADE
:101B1000D685138544002322240723244407EF009D
:101B2000B0344E85EFE08FEBEF00306EEFE04FE921
:101B30005E20AA8913F7070419CB93F7F7FB5EA081
:101B400037240002EFE08FE9130414C06DBF528602
:101B5000CA852685C53D2A8449BF3724000213045F
:101B600064C055B737240002130474C069BF37241A
:101B70000002130424C041BF37240002130404C030
:101B800059B737240002130444C0B5BF37240002FC
:101B9000130434C08DBFEFE2EFEC59C11C45D1C72F
:101BA0005C41C1C7370400026D8C49E4AA842E89C8
:101BB000EFE00FE19C402A8A8844B3E727019CC0EC
:101BC000938A4400638AAA04130585FB8146930720
:101BD0008504639BFA00A9C25285EFE02FE0EF0075
:101BE000D06222856FE04FEB3C558329C50413F783
:101BF0002700938989FB09C778513377E90001EB06
:101C0000918B89CB78519C40F98F6315F700EF00D9
:101C1000702885464E8565BF5285EFE02FDCD1B731
:101C200037240002130464C06DBF3724000213047C
:101C300074C045BF37240002130404C05DB7397176
:101C400022CC3EDA2A845C10094506CE2ED232D44C
:101C500036D63AD842DC46DE3EC6EFF00FCC09E578
:101C6000B2452285EF30B054EF101023EFE22FE1A0
:101C70003735000013056566EF1070286FE06FE2DE
:101C8000EFE2EFDF0545EFF04FC919E537750000CA
:101C90001305C52BEF305063354723A0E18CB933D2
:101CA0002A8419CD0945EFF04FC701E937750000C7
:101CB000A2851305452DEF30904F22856FE06FDE32
:101CC000EF10301EEF10204B2A8401CD0945EFF0B4
:101CD000CFC465F5377500001305052FEF30D05ED2
:101CE000E9BFEF0030542A8469F9A9282A8471F5E4
:101CF00065202A8411C90945EFF02FC25DFD3775B3
:101D0000000013054530D9BFEF1020322A8411C9D5
:101D10000945EFF08FC055F1377500001305853187
:101D200075BFEF1020692A8449F9EF10107E2A84CC
:101D300049D50945EFF06FBE49F13775000013052D
:101D4000C53269BFEFE2AFD393878183DCC39CC305
:101D500003A501839305000FEFF0FFBA23AAA18228
:101D60001DC513848183210581472946230C05FE67
:101D70001840232EF5FE8507544318C154C188C26C
:101D800048C36105E394C7FE01456FE08FD1372555
:101D90000002130505D0D5BFEFE26FCE03A5018386
:101DA00093058010EFF03FB61384018408C021C56D
:101DB00093068010014693058010EFF0CFC3938700
:101DC0004184DCC39CC31C40014793864184F107D6
:101DD000194590422397E7FE05074C4290C34207FE
:101DE000CCC39CC15CC241839387C702E313A7FEA7
:101DF00001456FE00FCB3705000213051560D5BF15
:101E000045C6C167ED1763E6E70ACDC945CBEFE2EA
:101E10006FC5110793140701C1802E89B385950200
:101E200003A50183B289EFF01FAE2A8A49CDEFE006
:101E30002FB993874184C043631FF400EFE00FBACA
:101E400003A50183D285EFF00FF9370500021305D2
:101E500045606FE06FC41C4058401CC3D8C3854721
:101E60002314F4FE930784FF232EF4FE232CF4FEA8
:101E7000930784005CC41CC4231524FF231694FE1E
:101E8000232244FF231A04FE231B24FF231804FEED
:101E9000231904FE40C000C0EFE04FB48357E4FEB6
:101EA000014523A0F90075B7370500021305C56089
:101EB00082803705000213053560828037050002F5
:101EC0001305D5608280370500021305256051B7E0
:101ED000EFE24FB941112A842E89B28AB6893AC6F7
:101EE00013FA1500EFE0CFAD9307C0023304F402FC
:101EF00083A70184AA843E945E206383071C1E246A
:101F000083A609003247F11763190A0063F9F60046
:101F1000370400021304F46139A863E8D71A931751
:101F20001A00A297962BA5E219EB3704000263036F
:101F30000A1A130464612685EFE04FAA55A083D7DF
:101F4000418B639C071813052A000E051105BA85FD
:101F5000229503ABC18AEF0020712685EFE00FA820
:101F6000EF00B02AEFE0CFA583574B00AA8413F708
:101F7000070401CF93F7F7FB370400022312FB009D
:101F8000130474604DBFFD1696AB93773900054777
:101F90006384E708B1CB0D476388E7080945EFF094
:101FA000CF9719E5377500001305C533EF30D031F1
:101FB0001349F9FF13791900930729008E07330796
:101FC000F40008479107A2976305F50E130585FBFA
:101FD000EF00406C2685EFE06FA00144EF00F02297
:101FE000228541016FE04FAB4A247A209307150008
:101FF0006392E702231604001A241C403305E5020D
:102000003E9593774900A1C3631B0A021C4123A09C
:10201000FA0079BF5EA4CDB74A2411E16A207D158C
:10202000420541814AA4C9BF6A247A20930715005A
:102030006395E70023170400C1B77EA475BF83A78B
:102040000A001CC1B5B79307C7FFAA9783A509006B
:10205000631F0A0203AA07002A865685D286EFF07C
:102060008F951DC12AC60945EFF02F8BB246130686
:10207000600F1DFD9D6537750000938505381305BC
:102080008535EF30D0122DB723A0490115B78CC389
:10209000AE865686BA85EFF00F92E30B05F02AC69E
:1020A0000945EFF08F87B246E31405F01306F00FF1
:1020B000D1B706094A941E2885071EA80144A5BD6C
:1020C000370400021304A460BDB5370400021304F2
:1020D000546195B51304D461B9BD370400021304EB
:1020E000646091BD954763E2A704A9C521C61C425F
:1020F000B9C7EFE2CF983284411136872E86AA8481
:1021000089EAA28681452685EFF09FDC41016FE0D8
:102110004F9936C62EC4EF10606F2246324775D1F4
:102120003705000213058561D5B737050002130591
:10213000E5608280370500021305F560828037056F
:102140000002130505618280EFE26F93411132C6F0
:10215000954763ECA7029DCD39C236872E862A8427
:1021600089EA74008D452285EFF09FD641016FE02A
:102170004F9336C42EC2EF1060691246224775D1C4
:102180003705000213059560D5B737050002130522
:10219000E560E9BF3705000213052561C1BF3705BA
:1021A000000213053561D9B7EFE26F8D0545EFE009
:1021B000DFF4EFE0EF800945EFE03FF605E19D66D3
:1021C000B7750000377500009386C6411306A00757
:1021D0009385C53A1305053DEF30607D01A009C523
:1021E00023A6A1840145828005458280EFE22F89E4
:1021F0004111680002C6EF10406C938781859843B7
:10220000B246D043BA9633B7E600329794C3D8C3E8
:1022100041016FE00F89138781855843938781853A
:102220006362B7046315B7009843636DA702EFE2DA
:102230000F850545EFE07FECEFD09FF80945EFE013
:10224000DFED05E19D66B7750000377500009386E8
:10225000C63E130650059385C53A1305053DEF307C
:10226000007501A088C3CCC37956FD5623A4C18054
:1022700023A6D1808280EFE28F8083A7C18C411199
:10228000C5CF02C6EFD0DFF32A896800EF10E06205
:10229000938781859443DC43B384A6003387B700DA
:1022A00033B4D4003A9413878186832847000323EC
:1022B0000700138881851386818663661401639302
:1022C000880663F164063247BA9633B7E600BA97D8
:1022D000B384A6002320D8002322F800B3B6D4008C
:1022E000AE973384F60063661401639D880263FB36
:1022F00064020545EFE07FE0EFD09FEC0945EFE099
:10230000DFE105E19D66B775000037750000938633
:102310004640130600079385C53A1305053DEF3087
:10232000006901A04A8504C240C2EFD03FEB268578
:10233000A28541016FD0FFF681440144CDBFEFD2A9
:102340009FF1411136C63AC42A89AE89328A3E8B42
:10235000EF0010112247B2466368B700AA872E86A5
:102360006394E50A63F2A60AB6873A86854A93869D
:1023700081809842D442938481806366D6006393BF
:10238000C60C63F1E70CB705002003A8050B130585
:10239000803E918E3358A8023305F7403337A700AB
:1023A000AE8B6394E600636F05093385274133B72D
:1023B000A700B3053641998D2A842E8C89E537070D
:1023C00000016365E50483A7C18491C38297370444
:1023D00000017D14B307890033B627014E96014CE6
:1023E00063930A007D5A23AA41859CC0D0C063082C
:1023F0000B00EFF05FE823ACA18423AEB18422850B
:10240000E285EF10E0473DA8814A95B7E37A05FDE4
:1024100083A7C18481C701458145829703A40B0B23
:102420009307803ED8403354F402014CB30789002F
:1024300033B627014E96E365E6FA6315C700984068
:10244000E3E0E7FA41016FD09FE4EFD25FE303A737
:10245000C18AB28703A8018A105BB706002083A651
:10246000060B6302060537D89A3B130808A0B3563B
:10247000D80231681308083518473358D802634822
:10248000E80037373101130707D03357D702135805
:10249000F741B306A70033B7E6002E984297EFF056
:1024A0001FEA6FD01FE01307803EB3D6E6027957CC
:1024B000B306D7403337D7001347F7FFCDB75A21BC
:1024C0009377470085CFEFD29FDB0545EFE0FFC252
:1024D000EFD01FCF0945EFE05FC405E19D66B775FA
:1024E000000037750000938606431306D0119385CC
:1024F000C53A1305053DEF30804B01A0145983A761
:10250000018A6389F606B707002083A7070BB7D6B1
:102510009A3B938606A0B3D6F602B165938505353E
:102520000353650037860020832E85009307466499
:10253000131E3300F2971308850483A8470013067F
:102540004664B3D5D50263DDD503639DF80093855A
:102550000185B7060080B3D6660003A30500B3E685
:10256000660094C1232615053CC523A00801729678
:1025700023220601137757F5136747005AA182807B
:1025800037363101130606D0B356D60214C5639B05
:10259000F800138601850C42B7060080B3D66600AA
:1025A000CD8E14C29C43D4433CC574C523A0060100
:1025B00023A20701C1B7562193F74600B1C71859A6
:1025C00083A7018A6300F70478453C4572211CC348
:1025D000D8C3378700209317360013074764232694
:1025E00005043E975C4323240504639DE70013879D
:1025F0000185B7070080B3D7C700104393C7F7FF23
:10260000F18F1CC3ED9A56A18280EFD25FC75E2185
:102610002A8413F7470005C3793F5E2093F7070A22
:1026200089CB8545130504014D2B5E2093F7F7F503
:102630005EA06FD01FC713F7870065D37445384578
:10264000DD9B98C254C323260504232405045EA100
:10265000E9B783A7C18A23A4070082805E214CC505
:1026600093E707025EA1828083A7C18ADA231386DB
:10267000870493668700D6A31441C842B4C7E8C74D
:1026800010C1D0C2FD566386D50013678708DAA350
:10269000CCC78280EFD2BFBE78453C452A841CC39C
:1026A000D8C35E21232605042324050413F777FFEE
:1026B0005AA193F7070881CB85454105392B5E2048
:1026C00093F7F7F75EA05E20C98B81E72285EFF0D4
:1026D0001FDF6FD01FBDEFD29FBAEFF05FDE6FD06C
:1026E0005FBC09C523A0A186014582800545828083
:1026F000EFD2FFB8B787002093874764138707108E
:10270000DCC39CC3A107E39DE7FE054523A8018424
:10271000212B23A2A186854709C9C5267956FD56D6
:1027200023A4C18023A6D18081473E856FD07FB787
:1027300003A5018505C1EFD29FB4EF206053B78791
:1027400000200E0593874764AA97C843130585FBAD
:102750006FD03FB583A7018A13058007B307F50241
:1027600003A5C18B3E958280EFD27FB1EFD05FA5EC
:10277000C1375E212A8493E707015EA11387C18ACE
:1027800048C323A6A18A054723A6E18CEFF0BFAE7C
:1027900008D04CD02285EFF01FE27956FD5623A4D5
:1027A000C18023A6D1807D5723AAE1840850184414
:1027B0004C508547B306A7001356F7412E9633B702
:1027C000E60032971058EFF09FB70545EFE0FF9411
:1027D00019E53775000013058539EF30E02E6FD00D
:1027E0005FACEFD23FA803A4C18AEFF0DFA8585036
:1027F0001C5063E7E5002E866316B7006374F5008E
:10280000EFF09F9A145803A7018A6388E6001844E2
:10281000B307F540B307F7401CC45E2008D050D082
:1028200013F7070A25CF5444AA8505471305040169
:10283000F524EFF0FFEF9384C18AC8C02A89814450
:10284000630EA4005E2018508544BD9B5EA05E21EF
:1028500093E707015EA15C5018D15CD14A85EFF087
:102860009FD50326090383A7018A630FF602032776
:10287000890083260902832549029357F741BA96B6
:1028800033B7E600AE973E97032509028325490238
:102890008547EFF0DFAA26856FD01FA0AD8BD1FB57
:1028A0002285EFF0DFC171B7B707002083A6070BC1
:1028B0009307803E7957B3D6F602B306D740333735
:1028C000D7001347F7FFC9B7EFD2FF9883A7C18C92
:1028D00095EB0545EFE07F82EFD09F8E0945EFE055
:1028E000DF8305E19D66B7750000377500009386AC
:1028F0004644130620219385C53A1305053DEF3064
:10290000000B01A0EFD0DF8B03A74185FD572A897B
:102910008144631BF70683A7018699C38297AA8423
:1029200083A94186814B138A418603A44900638BA6
:102930008904EFF05F942A8BAE8A5C4463E4FA0466
:10294000639557011C44636FFB0203250A00A285AF
:102950004D2A835744FF13F787020DC313F777F50A
:10296000420793F687004183A9E2231AE4FE898B8C
:1029700091E7130504FFEFF09FB4854B03A44900D2
:10298000E39D89FAB3E474017956FD5623A4C1800E
:1029900023A6D18085CC83D7418B8DEBEF00705877
:1029A0004A85EFD0BF836FD09F8E13670704231A29
:1029B000E4FE545C185C98C254C3232E0402232CFA
:1029C0000402232604022324040255B7EFF0BF8A31
:1029D00083A7C18AD453985363E6D5006396B600A3
:1029E0006374E500EFF04FFC905B83A6018A6308F7
:1029F000D60094473307E5403387E64098C788D32D
:102A0000CCD30546EFF07FA461BF83A7C18C91CBE7
:102A100083D7418B99E7EFD29F86EF0090506FD01C
:102A20005F888280EFD2BF8593874187DCC39CC3D8
:102A300003A5018393050030EFE0FFEC23A8A186F6
:102A400015C91384418721058147130600031840E7
:102A5000231FF5FE231C05FE5443850718C154C1EE
:102A600088C2C20748C3C1834105E392C7FE01453E
:102A70006FD03F833705000213050570D5BF0328CB
:102A80004500AA8863130503B707002003A5070BB9
:102A90009307803E3355F502F9573385A740B3B706
:102AA000A70093C7F7FFBE858280014581470327B2
:102AB000C80083268800636DE6006314C70063E9DD
:102AC000D500032848002E85B287E39208FFE1BFB6
:102AD0003366F50005C233E6E60071D63386A640BC
:102AE000B3B5C6003308F740E31FB8FA9305803E3C
:102AF000E3EBC5FA3685BA877DB748C108C1014501
:102B00008280D8419C411CC3D8C37D57FD5723A266
:102B1000050023A0050098C5DCC58280EFD22FF602
:102B2000854741112A84630CF70089476303F70640
:102B300037750000BA851305C545EFF04F909384B3
:102B4000418832C62EC436C2EFD08FE7B7070020C7
:102B500003A7070B9307803E92463357F702A2451F
:102B60003246B307D7023337D702BE95B3B7F50065
:102B70000CC432973386E700DC4050C4639EF400F7
:102B800044C004C080C0C0C0EFD04FE541016FD049
:102B90004FF19384C18775B7D84794476366E600C1
:102BA0006318C70063F6D5005CC004C080C3E1BFF2
:102BB000639AD5006318E600D8431CC058C000C310
:102BC000C0C3D9B79C40D8476367E600E316C7FE89
:102BD0009847E3F3E5FE9C43FDB7EFD24FEA138736
:102BE000F5FF854763F8E700377500001305C54515
:102BF000EFF0EF842A84EFD0AFDC1C447D5763955F
:102C0000E7005844630EF70058401C401CC3D8C36B
:102C10007D57FD57232204002320040018C45CC400
:102C2000EFD0CFDB6FD0EFE7EFD26FE585476303DF
:102C3000F50289476303F5020945EFE00FCE014431
:102C400019E53775000013058547EF20F0672285E9
:102C50006FD02FE513844188DDBF1384C187C5BFC2
:102C6000EFD24FE0AE892A89EFD08FD52A8A4E86DF
:102C7000CA8513854188EFF09FE0AA842E844E8692
:102C8000CA851385C187EFF09FDFAA892E895285F7
:102C9000EFD0CFD4636889002685A285631624010E
:102CA00063F499004E85CA856FD00FDF5C461846E5
:102CB00063E6F500639EB702637CE502EFD22FDC8A
:102CC0003305A7403337A7008D8F998F1307803EB8
:102CD000B335A702B706002003A6060B8146B3074B
:102CE000F7023305A702BE95EF10707F6FD06FDB40
:102CF00001458280EFD22FD64111A1473EC2214B20
:102D00009309803E377A0000854B03A54189FD5623
:102D100050002C00EFF00FBD6DF99247E39767FF6D
:102D2000A247E5D7EF0030152A89A2473245AE8485
:102D30008297EF0050143309254133352501858DE5
:102D40003384A54019E0E3F22BFD0D45EFE0EFBC25
:102D50004DFD338489021306803E8146B3B52903B5
:102D600033852903A295EF109077A2452A86130593
:102D70000A49EF20D04351BFEFD26FD0938701892A
:102D8000984323020500914618C188C31C45194584
:102D90000146B3F7A7023785002013054574914516
:102DA0008A073E95EFE02FC56FD0AFCFEFD22FCD82
:102DB0000111E1460146E1452800EFE0CFC3B737F6
:102DC0000000938747CF3EC49307002D3ECAB777D4
:102DD00000009387874B2C001385818B3ECC2316F4
:102DE0000100052D05616FD0CFCB03AF818903288A
:102DF0004F00630C0F11EFD2EFC61C461947378EF8
:102E00000020B3F7E70213074E743284FD52FD5FD2
:102E10000146814E130E4E741949B70300FFB704E3
:102E200000C08A07BA9703A30700370700017D1780
:102E3000B378E300B3F9E800832788FEB3F72703EC
:102E40008A07F2979443B3F7E60033FAE700B3F644
:102E50007600B3E6460133FA960063179A04032A14
:102E60000401832A08FF63974A014286EFF01FE4BA
:102E700048C49DA83373730033633301131A2300CE
:102E800063540A02F98E8DC263800806930608FE19
:102E900063EE170533FA170363180A00B3D7170355
:102EA00063F4F701BE8FB68E03284800E3160FF9CE
:102EB00063890E04044885C883A78E001947B3F7B9
:102EC000E70213070003B387E70203A9C1883E990D
:102ED00013060902EFF09FDD832709013385A74020
:102EE00033759502898C44C46FD00FBB33FAF80256
:102EF000E31C0AFAB3D7F802E3F857FABE82368623
:102F000065B77DD21306060295B78280411122C4AF
:102F10004AC22A844EC006C6EFF0EFB51C481947D6
:102F20002A895CC489475CA01C44AE89B3F7E702D8
:102F300013972700B787002093874774BA97984361
:102F40009356E701858A91CA63490700B706008056
:102F5000558F98C32286EFF05FE954440947CA852C
:102F60004E8613050402EFF07FBBEF00606F11C5C2
:102F700005464A85CE85EFF04FCDB2402244124936
:102F8000824941018280EFD20FAD83A48189411132
:102F90000145C040638A8406EFF0EFADAA8A138929
:102FA0008189AE890145054A894B555C994C5C4441
:102FB00063ECF904639537011C4463E7FA040325C5
:102FC0000900A285130D04FEEFF0BFB3832784FF31
:102FD00003A5418981463EC4832744FF21462C0036
:102FE0003EC6EFF06F96834754FE8DE76A85EFF09B
:102FF000BFD8832784FE636CFC0099072324F4FE6A
:10300000C0400545E39584FA41016FD04FA8B3F75E
:103010009703EDB7639647016A85EFF03FEFCDB7B1
:10302000E39077FF230244FFE1BFEFD24FA537853E
:103030000020E145E146014613054574EFE0AF9BF2
:1030400003A5018393050012EFE0FF8B55C593069E
:1030500000120146930500122A84EFE0CF9923A6BF
:10306000818823A88188232404009307040305474B
:10307000994698C723A8F7FC050793870703E31A27
:10308000D7FE21478146138641899945014513049E
:103090000412EFE0FFD601CD03A50183A285EFE086
:1030A0008FD3370500021305B5306FD08F9FEFF037
:1030B000FFCF19C903A50183A285EFE0CFD1370562
:1030C00000021305C530D5B70945EFF0FFB523ACB5
:1030D000A18801E903A50183A285EFE0CFCF0545D3
:1030E000E9B7EFF09FA17DF537350000130565F8CE
:1030F000EFF02FDF5DD9F9BF3705000213057530FA
:103100006DB7EFD22F96EFD0AF8BAA891389418C80
:103110009384418A03244900631724014E85EFD02C
:10312000EF8B6FD06F9758401C40832544FE03A55A
:1031300001831CC3D8C323220400DC4004C05CC04C
:1031400080C3C0C0EFE02FC9232204FEE1B7EFD255
:103150000F93EFF01FFB83A7C18981C705458297B5
:10316000CDBFEF00E077F5B709C523AEA1880145D3
:10317000828005458280EFD2EF8E83A6018C930773
:10318000800741118506B386F60203A50183B68543
:1031900036C6EFE04FF723AEA18A49C9B2460146D1
:1031A0009384C18BB685EFE00F859387418ADCC39A
:1031B0009CC39387418CDCC39CC39C401389018CC6
:1031C0000144938787041387418A0545B545144315
:1031D00023A487FE239EA7FAD04294C30504D0C33C
:1031E0001CC2DCC293878707E313B4FE9389C18AAC
:1031F000A1460146A1451385C18AEFD0DFFF032711
:103200000900930780073387E7029C40BA97370786
:1032100020004507D8C323A0F90080DB7D5723A0F9
:10322000E18AEFF0EFCC41016FD00F873705000343
:1032300013050520CDBFEFD28F842A84AE840859B0
:10324000CC453289A5219C447D5708C03CC0DC4454
:1032500023262403232C04021CD489475EA0DE20ED
:10326000232E0402232404007EA09C402326040075
:10327000232204065CD8FD573CCC9C4801452326FC
:1032800004067CC0FD5718CC5CCC6FD08F816300E6
:10329000050E6383050E9C496385070E98416307FD
:1032A000070ED621FD4763E8D70E6398F600B737BF
:1032B00000009387E7146310F70EDC452167636114
:1032C000F70E81E79307002DDCC5DC45E156014789
:1032D00063E3F6001D47BA97E19BDCC51307F012C4
:1032E0006375F70CEFC21FF82E84AA891389418AEF
:1032F000EFF03FE1EFC0DFEC83244900639A240143
:10330000EFC0DFED37050002130515216FC0DFF8B0
:10331000D8409C40138A84FB1CC3D8C323A204005A
:1033200023A00400EFC09FEB4C4403A5018321467A
:10333000EFE08FE22A8615E1EFC09FE8832749007E
:1033400023A02401DCC084C323229900EFC01FE91D
:10335000370500031305052055BFA2855285EFF000
:103360009FED4DF583A784FE23A0F90045B73705EF
:103370000002130575208280370500021305152011
:103380008280370500021305552082803705000230
:103390001305452082803705000213053520828001
:1033A0003705000213050522828037050002130548
:1033B00065208280EFC2BFEC0111E1460146E14584
:1033C0002800EFD05FE3B73700009387E7143EC4CF
:1033D000930700503ECAB77700009387C74F3ECC93
:1033E0009384018AFD472C001385018A7C86EFF0C7
:1033F0001FEA2A8419E9884093078007B387A70248
:1034000003A5C18B3E95EFF00FAD228505616FC01E
:103410005FE9EFC2DFE62A84EFF07FE7AA841DE5CB
:103420001C4013048007B307F40203A4C18B3E942D
:10343000EFC01FD92A892285EFF06F884A85EFC037
:10344000FFD983A7C18C99C3EFF02FDC26856FC00D
:103450005FE583A7018A630BF50E83A7818B630C5D
:10346000F50EEFC23FE083A7018C1389018C6379CD
:10347000F50E13048007B307850203A4C18BAA8A43
:103480009384C18B3E94EFC0BFD35E202A8A13F78A
:10349000170009CBEFC09FD4370500021305A52004
:1034A0006FC09FDFC18B95C303D7418B9389418B3D
:1034B00009CF1145EFD07FC619E537750000130518
:1034C000454CEF206060239009002285EFF0EF93D8
:1034D000FD573CCC5E202322040613078404C18BD5
:1034E0004C54B1C385475EA083A7418C5285D44319
:1034F0003CC474C498C2D8C303270900930780074B
:103500003387E7029C40BA9723A6F18A4547DAA39E
:10351000784023A85703CCD7F8C3EFC03FCCEFF0D7
:10352000CFCE0145B5BF85475EA09387418AD4437E
:103530003CC474C498C2D8C303A50183EFE0AF892B
:10354000528523260402EFC07FC9E1BF3705000280
:10355000130545218280370500021305152282805C
:10356000370500021305752025BFEFC25FD1130494
:1035700080073305850203A4C18B2A945C58284038
:1035800082970858EFF0FFEC01CD0945EFD0FFB866
:1035900001E90C583775000013058550EF202041D4
:1035A0006FC03FD0EFC2BFCD4111EFC07FC12AC66F
:1035B000EFF02F8A3245EFC07FC2EFF00FC5014513
:1035C00041016FC01FCEEFC29FCBAA84812415E9B1
:1035D00083D7418B85EF99E4EFF0DFFC2A842285C5
:1035E0006FC03FCC2A84EFC0BFBD2A8903A5C18A22
:1035F000A685EFF0AF864A85EFC05FBEEFF0EFC063
:10360000F9BF370400031304D420D1BF37040002EC
:103610001304E420E9B7EFC29FC6EFC07FBA9387D7
:10362000418B9A2305079AA3EFC05FBB6FC07FC78A
:10363000EFC2FFC4EFC0DFB81387418B1E23AA86F9
:1036400081CFFD17C207C1831EA399E7EFC01FB941
:10365000EFF0AFBB6FC0FFC43685EFC03FB8DDBF32
:1036600003A5C18C8280EFC29FC1EFE03FB8EFF0AD
:10367000AFA56FC01FC3EFC29FC0EFE0DFBFB707AA
:10368000002003A6070B9307803E81463356F602BF
:10369000EF10E0646FC0FFC0EFC27FBEEFC05FB24B
:1036A00001A0EFC2DFBDA12A6FC0BFBFB7D7CCCC8E
:1036B0009387C7CC91051CC22E96719A37D7CACA78
:1036C000930686F89307C6F81307A7AC98C391072B
:1036D000E31EF6FEB7370000938787692326F6F8C6
:1036E000B73700009387A7562324F6F8A16793877E
:1036F00007882322A6FA232EF6FE36858280EFC2A3
:103700001FB841112A84EFC0BFAB2285292219E5D9
:103710002AC6EFF06F85EFC0FFAC324541016FC0A4
:103720005FB8B7E700E0116723A0E7208280EFC20F
:103730001FB5EFF00F8B1387C18A584323A6E18A88
:103740006FC03FB6130181F806C216C41AC61EC860
:1037500022CA26CC2ACE2ED032D236D43AD63ED861
:1037600042DA46DC4ADECEC0D2C2D6C4DAC6DEC8F1
:10377000E2CAE6CCEACEEED0F2D2F6D4FAD6FED841
:103780009302000273A04280F322003096DA938203
:10379000C18A83A2020023A02200F322103416C0A3
:1037A000EFF0FFF89382C18A83A2020003A1020016
:1037B000824273901234D652739002309240A242E9
:1037C0003243C2435244E244724582551256A256D5
:1037D0003257C2575258E25872598649164AA64A79
:1037E000364BC64B564CE64C764D865D165EA65E55
:1037F000365FC65F130181077300203000008280AE
:103800009387818D9843050798C3828003A5818D96
:103810003335A0008280B707002083A7070B856699
:1038200023AAF18C1307803EB3D7E702014823A8EF
:10383000F18C23AC018C37E700E02320D710916690
:103840002320D710C1562306D7402307D74023AEE5
:10385000A18C37F700E0232207001386F7FF10CB77
:10386000814654CB81471CC723260701BD471CC393
:103870000145828083A7C18D91C382977300203058
:10388000B7F700E098431306F5FF799B98C3133709
:10389000150090CBB386E540D4CB814694C7014751
:1038A000D8C723A2070037E700E085662320D72882
:1038B00098431367170098C38280EFC25F9C2A89E0
:1038C000EFC01F90B7F700E08047C447984BDC4B30
:1038D0002320E900EFC09F902285A6856FC07F9CC2
:1038E00037F700E0832707D1DD9B2328F7D073004B
:1038F00050100145828023A0A18E23A2B18E828028
:10390000EFC2FF9437840020AA84EFC07F8B130797
:1039100004761C43AA8A130404765CC399C805473D
:103920006374F700232204001E248DEB5C408DCBD2
:1039300019A8F917854663F6F600EFC03F8A6FC0F5
:10394000DF941E27FDFB23260400EFF0DFCC1C488C
:1039500048409C43829719C585492DA6232204001F
:10396000814981A85C408546184CF91763E2F6044A
:103970001C4B9DCF829785495C48639F0712054584
:10398000EFD0AFF7EFC0DF830945EFD00FF905E1C6
:103990009D66B7750000377500009386C654130600
:1039A0003009938585521305053DEF20400001A0A5
:1039B000854903298401E30109FC83274900CDDF00
:1039C00083278900D5DB8327C900DDF7032A090097
:1039D000E3040AFA9387018E83AC070003AC470027
:1039E000B3E78C01D1DBB707002003AD070B81469D
:1039F00066856A86E285B7D49A3BEF106067938448
:103A000004A0B33795026A868146B38595023305D3
:103A10009502BE95EF10A02C2A8BAE8B6A8681464C
:103A20006685E285EF10A02B330C950237D69A3BC2
:103A3000130606A08146B38595025A9C333B6C0160
:103A400033359502B384A500DE94DA946285A685A9
:103A5000EF10E028330B450337D69A3B130606A038
:103A60008146B385450333354503B38BA500628595
:103A7000A685EF10E05FB337450337D69A3B1306B0
:103A800006A08146B385450333054503BE95EF1077
:103A90000025B304AB00AE9BEFE0EFFD83270901E7
:103AA00008D04CD0829733BB6401832749005E9BCA
:103AB0002685DA858297C9B5584005EF8443B1E47D
:103AC0000545EFD08FE3EFC0AFEF0945EFD0EFE44E
:103AD00005E19D66B7750000377500009386C654F2
:103AE0001306F009938585521305053DEF10306CE0
:103AF00001A085466314D7008447D1B78946631473
:103B0000D700844B6DBF844F5DBF5685EFC00FED6E
:103B1000638409005C4491E38294EFC06FEA5C40E7
:103B2000AA8A91EB5C48DC439DC78297584089473D
:103B30006313F70229A805476395E7005C48DC4753
:103B4000E5B709476399E7005C48DC4BF9FF1C4C7B
:103B5000DC4B639D07101C505850D98F63890710A8
:103B6000032A8401EFC0CFE5AA8C8327CA00B7D40B
:103B70009A3B938404A0829783278A002A8BAE8B7A
:103B80008297B707002003AC070B81465A856286EF
:103B9000DE85EF10E04DB3379502032D0A00814614
:103BA0006A86B385950233059502BE95EF10201302
:103BB0002A89AE8D6A8681465A85DE85EF102012ED
:103BC000B385950237D69A3B130606A08146B30B00
:103BD000950233359502CA9B33B92B012E95338B51
:103BE000AD004A9B5E85DA85EF10600FB3858503D3
:103BF000045037D69A3B130606A081463339850315
:103C0000B30785032E994C505E852E99DA85BE94B4
:103C1000B3B7F4003E99EF10A045B337850337D60C
:103C20009A3B8146130606A0B385850333058503B9
:103C3000BE95EF10C00A338BA400CA95B3349B0025
:103C4000AE94014881475A85A6851CD023220403DF
:103C5000EFE06FDC5A850146A685EFE00FFF832772
:103C60004A0182976685EFC06FD711A082974840BE
:103C700001C51C48DC438297184089476314F7004C
:103C8000232004005685EFC06FD5E38A09CAEFF000
:103C90003F9A75B1BDC1EFC28FDE85472E8463099F
:103CA000F50209C989476301F504372500021905A2
:103CB0006FC02FDF9C41B1C7DC41A1C7EFC04FD01F
:103CC000B787002023A88776EFC04FD10145CDB735
:103CD000EFC00FCFB7870020938707768146014753
:103CE00094D3D8D380CFCDB79C4181CFEFC04FCDF7
:103CF000B787002023AA8776C1BF372500020905B0
:103D0000828037250002090565B7EFC24FD7378596
:103D10000020130405769306800201469305800275
:103D200013050576EFD02FCD374500001305658FBD
:103D300023200400EFE0AFCA2A8429ED37450000B4
:103D400013050590EFF04FC22A8429E503A50183EE
:103D500093050002EFD03FBB9384818E88C0054459
:103D600015C993060002014693050002EFD0AFC8C3
:103D70008C40B74700009387078E9CC10945EFF040
:103D80007FF12A8401C98C4003A50183EFD0BF8451
:103D900023A0040022856FC0CFD0EFC24FCE514583
:103DA0002D2C37140140A14513050440EFC0FFFE40
:103DB000130580021D24A14513050440EFC0BFFD7B
:103DC00013052003192CDD2A1305900E4122054509
:103DD000552A1145A52ADD226FC0AFCCEFC22FCAEC
:103DE00013054006DD2A37140140A14513050440A0
:103DF000EFC0BFFA2945D522A14513050440EFC005
:103E00009FF92945D92A5D2A1305000E812209450B
:103E1000952A1145252A5D226FC0AFC8EFC22FC673
:103E200009452D220145B92A512A1D4505221305B0
:103E3000500A892A6FC0EFC6EFC26FC449453922C4
:103E400001458922A52A6FC0CFC5EFC24FC3854760
:103E50002A842E896314F6004145CD282299938443
:103E60008181631424016FC0CFC31C20050413D7C4
:103E7000670093F6370026971823A696882293D6D4
:103E800047008D8A8983A6961A078D8B498FA6973E
:103E900088229C231205498F8A07D98F13F5F70FC3
:103EA000D520C1B7EFC2AFBD411185451305000252
:103EB000EFD0AF8C854513050004EFD00F8C8567DC
:103EC000938787F07C8237150140C1473EC64C007E
:103ED0008D47130505403EC4EFC05FDFE17737250E
:103EE00001407C824C0093078004130505803EC688
:103EF000EFC0DFDD41016FC0CFBAEFC2AFB6856959
:103F0000371401402A89A14493890980130404408D
:103F1000CE852285EFC07FE893178901E18793055D
:103F20000040228563D10702EFC0FFE6FD140609B9
:103F3000CE85228593F4F40F1379F90FEFC0BFE516
:103F4000E1F86FC06FB5EFC05FE5CDB7EFC22FB33B
:103F500037140140AA849305001013050440EFC0F4
:103F6000DFE39305002013050440EFC01FE326851F
:103F7000EFF0BFF89305001013050440EFC0BFE158
:103F80006FC02FB2EFC2AFAF37140140AA849305C0
:103F9000001013050440EFC05FE0930500201305F7
:103FA0000440EFC05FDF2685EFF03FF5930500107A
:103FB00013050440EFC03FDE6FC0AFAEEFC22FACC1
:103FC00037240140130404808544A1652285EFC095
:103FD000FFDBE31C95FE6FC0CFACDD67FD567D15A2
:103FE0009387F76F6317D5008280324705073AC67B
:103FF00019A0411102C63247E3F9E7FE7D15E31B24
:10400000D5FE41018280DD67FD567D159387F76FF0
:104010006317D5008280324705073AC619A04111BF
:1040200002C63247E3F9E7FE7D15E31BD5FE4101E9
:104030008280EFC24FA2AA8A37850000130585B798
:104040002387018EEF1050288547372A00402388A8
:10405000F18E85499384E18E1384018F378B0000A4
:10406000130A0A80854B094CB78C0000114D568607
:10407000CE8513058BB9EF109013D6855285EFC00E
:10408000FFB81309007D9C20639D770137850000F0
:10409000130585BB23000400EF10102301456FC0FA
:1040A0000F9F639E87011385CCBCEF10F02185091B
:1040B000638CA90313054006EFF0FFF44DBF7D1993
:1040C0004209294513590901EFF0FFF3E31D09FAED
:1040D0009C20F1FF37850000130505BFEF10D01EAF
:1040E00009452300040065BF378500008D45130591
:1040F000C5C0EF10D00B0545230004004DB7EFC23B
:104100006F96A387018E2386018EA388018E397155
:104110001384018FA386018E85452A8A1305000426
:104120002387018E2300040002CA02CC02CE02D8EB
:1041300002DA02DC02DE02C602C8EFC0FFE58545F6
:104140004145EFC09FE3E14785490D494C083715CC
:1041500001403ECE231A31014ACCEFC03FB7894718
:10416000FC824C089147371501403ECEEFC01FB688
:10417000F167B7240040938707203ED80C18B70793
:104180000C00138504803EDC02DA231E0102EFC01E
:104190009FE205469305505213850480EFC0FFEB64
:1041A000930770157C86680085473EC82307310158
:1041B000EFC05FBF05469305505213850480EFC0E2
:1041C000DFE9854513850480EFC0DFE71305401F55
:1041D00023002401EFF03FE3B7850000938585AA13
:1041E00013850480EFC09FA21305401FEFF0BFE1CD
:1041F000378500001305C5AA23000400EF10D00C7A
:10420000378500001305C5ABEFF0BFE22A84AA850D
:1042100037850000130545ACEF10607919E4378548
:104220000000130545ADEF10300A85476314FA040A
:1042300037850000130585AEEF10607737860000E4
:10424000B785000085461306C6B0938585B1081072
:10425000EF10700B0810EFF0DFDD19E53785000077
:10426000130505B2EF10500637850000130545B45D
:10427000EFF03FDC21616FC02F82EFC24F80854499
:10428000411163EAA40437860000B7850000AA86BE
:104290002A84130646C3938585B10A85EF10B006BC
:1042A0000A8563159402EFF0DFD837860000B785E2
:1042B0000000130606C49385C5C60A8502C002C263
:1042C00002C423160100EF1010040A85EFF07FD618
:1042D00041016FB01FFD0545E5BFEFB25FFA79718F
:1042E000AE873787000037860000B7850000AA86B2
:1042F000130787B51306C6B5938585B62800EF105A
:1043000090002800EFF0FFD201E505472386E18EFB
:1043100045616FB01FF9411102C402C601468147D1
:104320008145C1481303E002254EA94E094F3307CA
:10433000C500182393160601C18229CB6314160108
:1043400001479DA0631D6700FD1793F7F70FE36911
:10435000FFFE850593F5F50F81470506C9BF930656
:1043600007FD93F6F60FE36DDEFC140813981500B5
:104370003698835688FF850793F7F70FB386D603E1
:104380003697130707FD231CE8FEC1BFC147638DA5
:10439000F6003C0014081306F00F8E236366B60087
:1043A0008907E39CD7FE05473A85410182801306C1
:1043B00055008147A5452948182109E7416533B5CE
:1043C000A7008280E30CC5FE930607FD93F6F60F67
:1043D00063E9D500B38707030505938707FDBA97FF
:1043E000E1BF01458280EFB2FFE783C7118F8549A6
:1043F00059710944638A37052A89AE84EFF0BFF109
:10440000054439C12685EFF09FFA1DCDB78600001F
:1044100037860000B7850000A6874A879386C6C402
:10442000130606C5938505C66800EF10C06D6800C9
:10443000EFF03FC02A8409E937850000130545C71E
:10444000EF10E056A387318F228565616FB0DFE4FE
:10445000EFB2FFE2B7850000938545A9138501906F
:10446000EF1060791384E18E854705E5B78500007C
:10447000938585A913850190EF10E07711E9B78541
:104480000000938505AA13850190EF10C07619C12D
:1044900089471CA008206FB0DFE0B7870020138891
:1044A00087782316E80009472320A800231BE8008B
:1044B0002314B8002315C80013F5750013D7350071
:1044C0009387877811C10507BAABD2ABF6A72398BB
:1044D000070089C61307400B6395E600CEA3F2A33D
:1044E0008280D2A3EEA38280B787002023A4A7787E
:1044F000828089476311F502B78700201387877888
:104500006AAB1A27935637001D8B9387877811C3A0
:104510008506B6AB82809147631CF500B787002003
:10452000138787786AAB1A27935627000D8BF1BF44
:104530009307A5FF93F7F70F0547E36DF7FCB787E0
:104540000020138787786AAB1A2793561700058BCC
:104550006DBFB7870020138787785A2393878778A2
:104560006364A712FA236361B712FA279306A005C2
:10457000630FD70063E4E60015C382809306400B07
:10458000630AD7029306E0106303D70482809A2758
:104590007D170D8FAA851315070141819A2B85463A
:1045A000630ED70231C38946630AD7088D4663017B
:1045B000D70882809A277D173305A740BA2742057E
:1045C00041817D17B305B740C205C181C1BFBA277C
:1045D0007D17098F2E8593150701C5BF9A277D1773
:1045E0003305A740420541819A27636FA708BA2780
:1045F000636CB708FA2B8946631BD704BA2BB30543
:10460000B70213573500420741832E978C439377A7
:104610007500130500083355F540BA9562056185AC
:10462000838705001DE21345F5FF7D8D88A18280FB
:104630009A277D173305A74042054181BA277D1788
:10464000B305B740C205C18145B75D8DC5B7914679
:10465000631DD702BA2B0D8A1A06B305B70213578A
:104660002500420741830D8906053356A640BA95B9
:1046700098439307000CB3D7A740BA95982193C7E6
:10468000F7FFF98FD18F9CA1828069174207418380
:104690008546E3EBE6FEBA2B1206B305B7021357C5
:1046A00015004207418305890A05BA959843930787
:1046B000000FB3D7A740BA95982193C7F7FF33559A
:1046C000A640F98FC98FC1B7B787002013878778B5
:1046D0007A2B8946938787786319D702014705A00B
:1046E000B305C702904336968506C206C1822E9650
:1046F00008A2B22BE3E6C6FE050742074183D62B8C
:104700006363D70082808146EDB791466313D70477
:104710001317650093164500558F498F0A05598D6B
:104720001375F50F0147D62B6363D7028280B3055B
:10473000C702904336968506C206C1822E9608A20D
:10474000B22BE3E6C6FE050742074183E9BF814677
:10475000C5BF691742074183854663EBE60013171F
:104760004500598D1375F50F0147D62B6363D702AA
:104770008280B305C702904336968506C206C18281
:104780002E9608A2B22BE3E6C6FE05074207418338
:10479000E9BF8146C5BFEFB2FFACB7870020AE844A
:1047A000938587783289D221411113848778636594
:1047B000A600FE2163F49702AA8537850000130541
:1047C000C5C8EF10C01E722037850000A6851305EE
:1047D00005CBEF10C01D41016FB01FAC85476300D2
:1047E000F7027D151314050141800147FD14E374A0
:1047F000D7FE131A07018147135A0A0141A0939A61
:104800001600C206C182158D13140501FD1A4180E0
:104810000147958CE37157FD131A07018147135A1D
:104820000A010DA09399070193D90901B385990055
:10483000C2054A86C1812285EFF0BFD19387190056
:10484000C207C187E3E057FF050413071A004204BB
:104850004207418041877DBF9399070193D90901A0
:10486000B3859900C2054A86C181228536C6EFF01C
:104870005FCE93871900B246C207C187E3EED7FC2B
:10488000050413071A00420442074180418785B797
:10489000EFB2FF9BBE8BB7870020411193878778CB
:1048A0003AC2DA236362A70CFE232E8463EEB70AB2
:1048B000328C636BC70AB68C63E8D70A3309A6400B
:1048C0009357F94133C92701B389B6403309F940F9
:1048D00093D7F941B3C93701B389F940B3073041E0
:1048E0003EC0AA84054B6363C5007D5B854A636354
:1048F0009401FD5A330A39418147054D8D4D850795
:10490000E207E1876316A80533E7B70331E30547FC
:10491000DE860546A285268542C4EFF0DFE7224801
:104920008147824613171A006349D700630E9C0221
:10493000DA94C204330A3A41C18013171A00E340E3
:10494000E9FC63838C02569442044A9A418045BF35
:1049500012460547DE86A285268542C63EC4EFF094
:104960009FE33248A24775BF41016FB01F92EFB27B
:104970007F8FB689B78600209386867883D84600D5
:1049800063EDA806F6222E8463E9B606B28463E6D8
:10499000C80663E436072A893A8ABE8A631D08047A
:1049A000AE86EFF0FFEED6875287CE864A86A28586
:1049B0004A850148EFF0DFEDD6875287A28626862A
:1049C000CE8526850148EFF0BFEC0148D687528797
:1049D000CE864A86CE852685EFF09FEB39A8A28643
:1049E000A28505040148D687528726864A85420457
:1049F000EFF01FEA4180E36434FF6FB0FF89EFB24C
:104A00001F8541112EC63289368BBA893E8AAA8407
:104A1000130C0008854C0346090001E641016FB004
:104A2000DF8613178601618783554B0081476357E3
:104A3000070A0147635DB7029307700A3304F70260
:104A400083270B003E941C206393C7120345190073
:104A50001C30631EF510034529003C206319F51036
:104A6000B24D0D04814A8357AB0063C0FA100D09A3
:104A700083578B0051A80306040013FD7D00B35536
:104A8000AC416D8E631F9A0309CA3385B401420598
:104A90004E86DE854181EFF0DFAB9D476313FD005D
:104AA0000504850D03568B00E3C7CDFC1D8A11C29A
:104AB000050493871B00939B0701850A93DB0B0179
:104AC0002DA833859D004205418101C64E86DE85B5
:104AD000D9B75286EDBF814DF1B7850763D3B702D1
:104AE0001307700A3384E70203270B003A94182057
:104AF000E315C7FEB24B0D04814A0357AB00E3CC6C
:104B0000EAFC83576B000509BE9431B70307040024
:104B100013FD7B003356AC41718F631F9A0309CBA1
:104B20003385740142054E86EE854181EFF07FA208
:104B30009D476313FD000504850B03578B00E3C7F6
:104B4000EBFC1D8B11C3050413881D00931D080188
:104B5000850A93DD0D0101BF33859B00420541812C
:104B60004E8611E35286EE85D1B7814BF9B7050722
:104B7000D1B5B707002083A7070B37177A001307B3
:104B80000720B3D7E70293F7F70F238AF18E1307B5
:104B9000803EB387E7022399F18E8280EFB22FEE39
:104BA0002A841165011185451105EFC00FBD9307DA
:104BB00000207C82371501408D473EC44C00E14700
:104BC000130505803EC6EFC06F9022C837440140F0
:104BD000B70708000C08130504803ECC02CA231E48
:104BE0000100EFC04FBD854513050480EFC08FC5A0
:104BF00005616FB00FEBEFB2EFE6B7440140AE894D
:104C00003289014493840480634524014A856FB04E
:104C1000AFE8930500042685EFC08FC87DD9B38720
:104C200089008385070026850504C205C181EFC080
:104C30002FC6D9BF138701811C43B78600209386F6
:104C4000467A3E95636BD500B706012093860680B1
:104C500063E5A60008C33E858280FD57EDBF73253E
:104C60001034828073252034828073253034828012
:104C7000C167637CF5029307F00F1307000263EB33
:104C8000A7009737000093876705AA978823330505
:104C9000A740828021819737000093872704AA9735
:104CA000882361473305A7408280B7070001636D01
:104CB000F50061819737000093874702AA97882300
:104CC00021473305A74082804181973700009387B1
:104CD000E700AA97882341473305A7408280B6871B
:104CE000B2882A832E88639B061463F8C50A41673D
:104CF000636BE61AB70700016360F63493568601CA
:104D0000E14717370000130767FD36971823BA9756
:104D1000130700021D8F19CB3398E500B357F50038
:104D2000B318E60033E807013313E50013D6080192
:104D30003355C80293960801C18293570301337714
:104D4000C802B385A60242073368F700637AB80049
:104D500046989307F5FF636418016365B8303E8594
:104D60003308B8403357C802420313530301337862
:104D7000C802B386E602420833686800637BD80045
:104D800046989307F7FF6365180179176363D800A6
:104D90003E874205598D8145828001E60547B3581B
:104DA000C702416763E8E80EB707000163EAF82825
:104DB00093D68801E14717370000130727F236978B
:104DC0001423BE9693070002958FFDE7939E08017A
:104DD0003387154113DF080193DE0E018545935794
:104DE00003013355E7033377E703B306D5034207DF
:104DF000D98F63FAD700C6971307F5FF63E417014D
:104E000063E5D7263A85958F33D7E70342031353DB
:104E10000301B3F7E703B30ED703C207B3E7670095
:104E200063FBD701C6979306F7FF63E51701791770
:104E300063E3D70136874205598D828063E1D5044B
:104E4000C16763E1F604B707000163E3F61E13D7F9
:104E50008601614897370000938747E8BA979823FF
:104E6000130E00024297330EEE40631A0E0C63EDF0
:104E7000B61C3335C5001345150081458280814538
:104E8000014582809307F00F63F3D71C13D7860088
:104E90002148C9B71307F00FC686E37E17F193D6F2
:104EA0008800A14709BF1307F00FB286E37BC7E470
:104EB00093568600A147B1B5B398F80033D6D50014
:104EC00013DF0801335EE6033397F500B356D500D0
:104ED000558F939E080193DE0E013313F500935511
:104EE0000701B376E603B387CE03C206CD8E63FB1C
:104EF000F600C6961306FEFF63E4161763F2F61675
:104F0000791EC6969D8E33D6E60393170701C1839B
:104F1000B3F6E6033385CE02139706015D8F637BFC
:104F2000A70046979307F6FF636817136376A712E7
:104F30007916469793150E01098FD18D4DB5B3574C
:104F4000E600B396C601DD8E33D3E50013DF06011C
:104F5000B357E303939E060193DE0E013398C50118
:104F60003357E50033680701935808013316C6012B
:104F70003373E303B385FE024203B368130163FB9B
:104F8000B800B6981387F7FF63EAD80C63F8B80C3B
:104F9000F917B698B388B84033D7E80342081358D6
:104FA0000801B3F8E8033383EE02C208B3E5080151
:104FB00063FB6500B6951308F7FF63EDD50863FB47
:104FC00065087917B695C207416FD98F1307FFFFA0
:104FD000B3F6E70093D80701718F4182B38EE602E2
:104FE000B3856540B386C60213D80E013387E80245
:104FF000BA96C2963386C80263F3E6007A9693D8CF
:105000000601469663E2C5026385C5003E8581457B
:10501000828041677D17F98EC206B3FEEE0033151C
:10502000C501F696E374D5FE1385F7FF81458280AE
:1050300013D70601414839BD93560601C147D1B186
:1050400093D60801C14785BB8145054582803687D7
:10505000014809B5428785BF3E86E9BDBA871DBFB5
:10506000328E4DB579154698E5B97915C69761BB6D
:10507000B68732882A832E872E8E6391061463F0BA
:10508000C50A41676376E61A1307F00FB2866375A7
:10509000C70093568600A14717370000130707C4BF
:1050A0003697182393080002BA97B388F840638CA8
:1050B0000800B3951501B357F5003318160133EE08
:1050C000B7003313150113560801B357CE02131559
:1050D0000801418193560301337ECE02B307F502E6
:1050E000420E3367DE006378F7004297636507017D
:1050F0006373F70042971D8FB356C70293170301DE
:10510000C1833377C7023305D5024207D98F63EBDA
:10511000A7083385A740335515018145828001E6F4
:1051200005473358C7024167636BE80EB7070001B4
:105130006364F82A93568801E14717370000130784
:10514000E7B93697182393080002BA97B388F84056
:10515000639A081E131E0801B38505411356080102
:10516000135E0E0113570301B3D6C502B3F5C50292
:10517000B386C603C2054D8F6377D7004297636439
:105180000701636AD726158F3355C70242031353AD
:1051900003013377C7023305C5034207B3676700CE
:1051A00063F8A700C29763E5070163F3A700C297FE
:1051B0003385A74033551501814582802A88E3EF66
:1051C000D5F4C16763E5F604B707000163E2F62092
:1051D00013D38601E14897370000938727B09A9749
:1051E00003CE070013030002469E3303C341631935
:1051F000030463E4B6006369C5003308C540958DB8
:10520000333705013387E5404285BA8582809307AD
:10521000F00F63FBD71C13D38600A1486DBF1307A3
:10522000F00FC286E37B07F193568800A14731B7A0
:10523000B70700016366F61A93568601E147A9BDD8
:10524000B357C601B3966600DD8EB3D8C50113D738
:105250000601B3DEE802139F0601B357C501135FD1
:105260000F01B3956500DD8D13D805013316660077
:1052700033156500B3F8E802B307DF03C20833E86B
:105280000801637BF80036989388FEFF6363D816A5
:105290006371F816F91E36983308F840B357E802E0
:1052A000C205C1813378E802330FFF0213170801EA
:1052B0004D8F637BE70136979385F7FF6369D712BC
:1052C0006377E713F9173697C20EC162B3EEFE009B
:1052D0001388F2FFB3F80E019355060193DE0E0119
:1052E00033780601B38F08033307E74133880E0391
:1052F00093D70F01B388B802C298C697B38EBE0287
:1053000063F30701969E41687D1893D50701B3F7B3
:105310000701C207B3FF0F01F695FE976362B70A54
:10532000630EB708B307F5403335F500B305B74052
:10533000898D339EC50133D567003365AE00B3D583
:10534000650082803318180133D7F5001356080121
:10535000B356C702131E0801B357F500135E0E01C2
:10536000B3951501DD8D93DE0501331315013377F8
:10537000C702B307DE0293160701B3E6D60163F84E
:10538000F600C29663E5060163F3F600C2969D8EB1
:1053900033D7C60293970501C183B3F6C60233071C
:1053A000EE0293950601DD8D63F8E500C29563E595
:1053B000050163F3E500C295998D6DB3E374F5F6CD
:1053C0003386C740B3B7C700B6979D8DB28799BFE4
:1053D00013D30601C14801B593560801C147B1BBBB
:1053E00093560601C1474DB936838148EDB3AE8768
:1053F000E1BDC68E55B5429779B3411122C406C6A8
:105400002A844EA572A5232005002322050023240B
:1054100005002322050623280500232A0500232C46
:105420000500214681451305C505EFA05FE89707F4
:1054300000009387C7715CD09707000093870774BB
:105440001CD4970700009387E7775CD49707000088
:105450009387477A00D01CD8B24022444101828011
:1054600097150000938545B291AA411126C21306F3
:1054700080069384F5FFB384C4024AC02E8922C4F7
:1054800006C69385440799292A8401CD2320050067
:1054900023222501310508C4138684068145EFA027
:1054A0001FE12285B2402244924402494101828098
:1054B0001C4DA5E7411106C622C49707000093873B
:1054C00067FA1CD59387C1819C43232405042326B6
:1054D0000504232805046314F50085471CCD2A84A0
:1054E000352848C022851D2808C42285052848C4BF
:1054F000484001469145EFF05FF008440546A54558
:10550000EFF0BFEF48440946C945EFF01FEF85476C
:105510001CCCB24022444101828082804111938799
:10552000C18126C284434AC006C69C4C22C42A8933
:1055300081E72685EFF0DFF7938484048044DC4024
:10554000FD1763D607009C40B9CF8440C5BF031741
:10555000C40039E7C177850723220406232004000D
:1055600023220400232404005CC423280400232AEB
:105570000400232C0400214681451305C405EFA037
:105580001FD3232A0402232C0402232404042326E9
:1055900004042285B240224492440249410182809F
:1055A0001304840671BF91454A85EFF01FEC88C053
:1055B00049FDB1472320F9000144E1BF797122D4AC
:1055C0004AD052CC56CA5AC85EC606D626D24ECE4D
:1055D0002A8AAE8A130485040149054BFD5B09EC58
:1055E000B25022544A8592540259F249624AD24A30
:1055F000424BB24B45618280044483294400FD192B
:1056000063D409000040E1BFDE24637BFB00839785
:10561000E40063877701A6855285829A3369A900E1
:1056200093848406E9BF1971A6DAAE848395E500F8
:10563000A2DC86DE328463DB0500DE2423A00600C4
:1056400093F7070885E7930700401DA0300836C68A
:10565000EF00D019B246E34205FE7247BD67F98FED
:105660007977BA9793B717009CC2F1BF93070004EC
:105670001CC0F6506654D654014509618280DE256F
:10568000011122CC06CE26CA4AC8898B2E8489CF26
:10569000930774041CC01CC885475CC8F240624470
:1056A000D24442490561828074003000AA84EFF040
:1056B0009FF7A2452A892685152419E98317C40076
:1056C00013F7072061FFF19B93E727005EA4C9B79A
:1056D00097070000938707D99CD45E2408C008C8A8
:1056E00093E707085EA4A2475CC8B24781CF831541
:1056F000E4002685EF00D01211C55E24F19B93E7EC
:1057000017005EA45E243369F9002316240179B7DB
:1057100093874181AA858843D1A293874181AA8535
:10572000884309AA93F5F50F2A966314C50001452D
:1057300082801C21E38EB7FE0505C5BFB3C7A50057
:105740008D8B3307C50081E78D4763EDC700AA87BE
:10575000637EE508942185078505A38FD7FEE3EBDB
:10576000E7FE828093763500AA8789CA942185074F
:105770008505A38FD7FE93F63700C5BF9376C7FF85
:10578000138606FE63F0C70683A3050083A24500C7
:1057900083AF850003AFC50083AE050103AE4501AD
:1057A00003A3850183A8C5019385450223A0770043
:1057B00003A8C5FF23A2570023A4F70123A6E701EE
:1057C00023A8D70123AAC70123AC670023AE170182
:1057D0009387470223AE07FF75B790419107910564
:1057E00023AEC7FEE3EBD7FEE3E6E7F6828063F184
:1057F000A504B386C500637DD5029345F6FF8147B6
:10580000FD176393F50082803387F6000348070095
:105810003387C7002A9723000701DDB73387F500D8
:1058200014233307F500850714A3E319F6FE8280DD
:105830008147E5BFDDC183A7C5FF411122C406C66C
:1058400026C21384C5FF63D307003E94AA84EF00E9
:10585000B0039387818F9C4381EF2322040023AC04
:10586000818E2244B2402685924441016F00F001AE
:10587000637EF40014403307D4006396E700984336
:10588000DC43369718C05CC0D9BFBA87D84319C368
:10589000E37DE4FE94433386D700631F8600104007
:1058A000B29694C33386D700E31DC7FA104358431A
:1058B000B29694C3D8C375B76375C400B1479CC092
:1058C0004DB71040B306C4006316D70014435843C5
:1058D000B29614C058C0C0C369B78280011126CAED
:1058E00093843500F19806CE22CC4AC84EC6A10456
:1058F000B14763F3F404B14463E2B4042A89EF00CE
:10590000A0789387818F98433A8439E09387C18F39
:105910009C4391E781454A85752A23AEA18EA685D1
:105920004A854D2AFD5963183507B1472320F900F0
:105930004A85EF00807529A0E3D004FCB1471CC163
:105940000145F2406244D2444249B2490561828035
:105950001C40858F63CE0702AD4663F6F6001CC07F
:105960003E9404C031A05C406312870223ACF18EE8
:105970004A85212F1305B40093074400619933072A
:10598000F54061D33A94898F1CC065BF5CC3CDB725
:10599000228740409DBF130435007198E30385FCC6
:1059A000B305A4404A853D22E31D35FBBDBF3971D7
:1059B0003EDA2ED232D436D63AD842DC46DE93874F
:1059C000418122CC804326CA06CEAA8411C41C4C35
:1059D00081E72285EFF0DFAD0C4454102686228546
:1059E00036C6EF00D02BF2406244D244216182805F
:1059F000011126CA4AC806CE22CC4EC652C4AA8479
:105A00002E8909C51C4D99E3EFF09FAA9C4C804458
:105A100081E72685EFF0DFA9972700009387073EEF
:105A2000631BF402C0405E24A18BB1C71C48A1C710
:105A3000FD59294A1C4483450900FD17B1E91CC4DE
:105A400063DD07062286A9452685C522FD57630822
:105A5000F502294535A0972700009387273C63145A
:105A6000F4008044C9B79727000093872737E31CC9
:105A7000F4FAC0444DBFA2852685552455D97D55DD
:105A8000F2406244D2444249B249224A05618280CE
:105A90001CC4050963D70700184C63CAE700638874
:105AA00045011C401387170018C08CA361B72286DC
:105AB0002685A52AE31035F9D9B71C4013871700AE
:105AC00018C0294798A371B793874181AA85884355
:105AD0006FF01FF2411122C42A842E8597370020CF
